:1008B80057656C636F6D6520746F004150535344E6
:0208C8004300EB
:10089F007F381208D67F011208D67F021208D67F42
:0908AF000C1208D67F060208D6DF
:0A08D6008FA0C291120858C29022B0
:0A08E0008FA0D291120858C2902296
:06082D008B088A09890A0C
:10083300E4F50BF50CAB08AA09A90A850C82850B14
:1008430083120800FF600D1208E0050CE50C70E54B
:04085300050B80E130
:01085700227E
:06085800D2907F0A7E0031
:10085E00E4FDFCE4FBFAC3EB9FEA9E50070BBB00E2
:0F086E00010A80F20DBD00010CBC03E7BDE8E4F8
:01087D002258
:10087E0012089F7F801208D67BFF7A0879B812087B
:10088E002D7FC51208D67BFF7A0879C312082D80FA
:01089E00E277
:030000000208CA29
:0C08CA00787FE4F6D8FD75810C02087EF2
:10080000BB010CE58229F582E5833AF583E02250AD
:1008100006E92582F8E622BBFE06E92582F8E222F7
:0D082000E58229F582E5833AF583E4932211
:00000001FF
