:0A098600C0F9A4B0999282F88090A5
:0408F6008E088F09D0
:1008FA00780A7C007D007BFF7A0979867E007F0A70
:10090A001208D0AF09AE08C3EE64809480403E74EA
:10091A000A2FF8E6F5A07D097C00740A2DF8E6F5A1
:10092A00B0E4FBFA900000A3E5826432458370F7D5
:10093A000BBB00010ABA03ECBBE8E9ED1D70011C10
:0D094A00BCFFD7BDFFD4EF1F70BD1E80BAEB
:01095700227D
:10095800E4F5907590017F027E001208F67590020A
:100968007F017E001208F6759004E4FFFE1208F677
:0209780080E11C
:0300000002097A78
:0C097A00787FE4F6D8FD7581130209585F
:10080000E709F608DFFA8046E709F208DFFA803EDA
:1008100088828C83E709F0A3DFFA8032E309F608C7
:10082000DFFA8078E309F208DFFA807088828C832F
:10083000E309F0A3DFFA806489828A83E0A3F608E3
:10084000DFFA805889828A83E0A3F208DFFA804CBD
:1008500080D280FA80C680D4806980F28033801094
:1008600080A680EA809A80A880DA80E280CA8033FD
:1008700089828A83ECFAE493A3C8C582C8CCC58375
:10088000CCF0A3C8C582C8CCC583CCDFE9DEE78045
:100890000D89828A83E493A3F608DFF9ECFAA9F0C4
:1008A000EDFB2289828A83ECFAE0A3C8C582C8CC1A
:1008B000C583CCF0A3C8C582C8CCC583CCDFEADE33
:1008C000E880DB89828A83E493A3F208DFF980CC95
:1008D00088F0EF60010E4E60C388F0ED2402B4048E
:1008E0000050B9F582EB2402B4040050AF23234535
:0608F00082239008507302
:00000001FF
