:10097D004F46004F4E004175746F6D617469632071
:10098D005761746572004C6576656C20436F6E74AB
:10099D00726F6C6C65720057617465724C6576652B
:1009AD006C3A2020004D6F746F72537461747573BF
:0909BD003A202000F0FCFEFF00CE
:100A58007F38120AA17F01120AA17F02120AA17F20
:090A68000C120AA17F06020AA18A
:0A0AA1008FA0C2B0120A32C2B122C7
:0A0AAB008FA0D2B0120A32C2B122AD
:060A07008B088A09890A30
:100A0D00E4F50BF50CAB08AA09A90A850C82850B38
:100A1D00831208F6FF600D120AAB050CE50C70E5AC
:040A2D00050B80E154
:010A310022A2
:060A3200D2B17F0A7E0034
:100A3800E4FDFCE4FBFAC3EB9FEA9E50070BBB0006
:0F0A4800010A80F20DBD00010CBC03E7BDE8E41C
:010A5700227C
:100A7100C2B5C2B67FCC120AA17BFF7A09797D0289
:020A81000A0762
:100A8300C2B5D2B67FCC120AA17BFF7A0979800264
:020A93000A0750
:0209C6008F0898
:1009C800780B7C007D007BFF7A0979C17E007F056A
:1009D8001208D0E4F509F50A740B250AF8E6B508FB
:1009E8000A7F8C120AA1AF0A120AAB050AE50A703F
:0E09F800020509C39404E5096480948040DA86
:010A060022CD
:10092300120A587F80120AA17BFF7A097983120A7F
:10093300077FC0120AA17BFF7A097993120A071273
:100943000A587F80120AA17BFF7A0979A4120A0749
:100953007FC0120AA17BFF7A0979B2120A07AF900E
:100963001209C6AF90EF64F07005120A8380D3AF0B
:0A09730090EFF470CD120A7180C8F5
:03000000020A955C
:0C0A9500787FE4F6D8FD75810F0209237C
:10080000E709F608DFFA8046E709F208DFFA803EDA
:1008100088828C83E709F0A3DFFA8032E309F608C7
:10082000DFFA8078E309F208DFFA807088828C832F
:10083000E309F0A3DFFA806489828A83E0A3F608E3
:10084000DFFA805889828A83E0A3F208DFFA804CBD
:1008500080D280FA80C680D4806980F28033801094
:1008600080A680EA809A80A880DA80E280CA8033FD
:1008700089828A83ECFAE493A3C8C582C8CCC58375
:10088000CCF0A3C8C582C8CCC583CCDFE9DEE78045
:100890000D89828A83E493A3F608DFF9ECFAA9F0C4
:1008A000EDFB2289828A83ECFAE0A3C8C582C8CC1A
:1008B000C583CCF0A3C8C582C8CCC583CCDFEADE33
:1008C000E880DB89828A83E493A3F208DFF980CC95
:1008D00088F0EF60010E4E60C388F0ED2402B4048E
:1008E0000050B9F582EB2402B4040050AF23234535
:0608F00082239008507302
:1008F600BB010CE58229F582E5833AF583E02250B7
:1009060006E92582F8E622BBFE06E92582F8E22200
:0D091600E58229F582E5833AF583E493221A
:00000001FF
