:07092B00636F756E743A0062
:0C08F900758920759850758DFDD28E22F7
:08091B008F993099FDC2992269
:0608D5008B0A8A0B890C5E
:1008DB00E4FDFCAB0AAA0BA90C8D828C83120800D9
:0D08EB00FF600A12091B0DBD00010C80E624
:0108F80022DD
:0A0911007F0D12091B7F0A02091B6B
:070923003098FDAF99C29866
:01092A0022AA
:0408AC00AB07AA06E6
:1008B0007C007D0A12082D8C0E8D0F8C0C8D0D7C0A
:1008C000007D0AAF03AE0212082D8E0A8F0BEB24B7
:0508D00030FF02091BCE
:10088200E4F508F5091208F920901A7BFF7A097934
:100892002B1208D50509E50970020508FFAE0812FA
:0A08A20008AC1209112090E080FB61
:03000000020905ED
:0C090500787FE4F6D8FD75810F020882AF
:10080000BB010CE58229F582E5833AF583E02250AD
:1008100006E92582F8E622BBFE06E92582F8E222F7
:0D082000E58229F582E5833AF583E4932211
:10082D00BC000BBE0029EF8DF084FFADF022E4CCAF
:10083D00F875F008EF2FFFEE33FEEC33FCEE9DEC78
:10084D00984005FCEE9DFE0FD5F0E9E4CEFD22EDBE
:10085D00F8F5F0EE8420D21CFEADF075F008EF2F08
:10086D00FFED33FD4007985006D5F0F222C398FDF9
:05087D000FD5F0EA2296
:00000001FF
